:100000000C945D000C9485000C9485000C94850084
:100010000C9485000C9485000C9485000C9485004C
:100020000C9485000C9485000C9485000C9485003C
:100030000C9485000C9485000C9485000C9485002C
:100040000C9477050C9485000C9445050C941F05C1
:100050000C9485000C9485000C9485000C9485000C
:100060000C9485000C94850000000008000201003B
:100070000003040700000000000000000000000072
:10008000250028002B0000000000240027002A0083
:10009000040404040404040402020202020203032E
:1000A0000303030301020408102040800102040836
:1000B0001020010204081020C10511241FBECFEF3B
:1000C000D8E0DEBFCDBF12E0A0E0B1E0E8EDF3E1A3
:1000D00002C005900D92A239B107D9F723E0A2E939
:1000E000B2E001C01D92A935B207E1F710E0CDE5FD
:1000F000D0E004C02197FE010E94E409CC35D1076D
:10010000C9F70E9400060C94EA090C9400008CBD0B
:100110009DBD089590E0FC01EC55FF4F2491805760
:100120009F4FFC018491882399F090E0880F991FDC
:10013000FC01EA57FF4FA591B491FC01E458FF4F31
:10014000859194918FB7F894EC91E22BEC938FBF4B
:100150000895AF92BF92CF92DF92EF92FF920F93EA
:100160001F93CF93DF936C017B018B01040F151F4D
:10017000EB015E01AE18BF08C017D10759F06991B5
:10018000D601ED91FC910190F081E02DC601099519
:10019000892B79F7C501DF91CF911F910F91FF90C6
:1001A000EF90DF90CF90BF90AF900895FC01538DFA
:1001B000448D252F30E0842F90E0821B930B541741
:1001C00010F0CF96089501970895FC01918D828DCE
:1001D000981761F0A28DAE0FBF2FB11D5D968C9167
:1001E000928D9F5F9F73928F90E008958FEF9FEFA6
:1001F0000895FC01918D828D981731F0828DE80F62
:10020000F11D858D90E008958FEF9FEF0895FC011B
:10021000918D228D892F90E0805C9F4F821B9109E8
:100220008F739927089580EB92E00E94070121E0E7
:10023000892B09F420E0822F089580E090E0892B3B
:1002400029F00E94130181110C9400000895FC0113
:10025000A48DA80FB92FB11DA35ABF4F2C91848D27
:1002600090E001968F739927848FA689B7892C9384
:10027000A089B1898C91837080648C93938D848DD7
:10028000981306C00288F389E02D80818F7D8083DA
:100290000895EF92FF920F931F93CF93DF93EC019A
:1002A00081E0888F9B8D8C8D98131AC0E889F9891D
:1002B000808185FF15C09FB7F894EE89FF89608320
:1002C000E889F98980818370806480839FBF81E0A1
:1002D00090E0DF91CF911F910F91FF90EF900895E3
:1002E000F62E0B8D10E00F5F1F4F0F731127E02EBE
:1002F0008C8D8E110CC00FB607FCFACFE889F989F6
:10030000808185FFF5CFCE010E942701F1CFEB8DD3
:10031000EC0FFD2FF11DE35AFF4FF0829FB7F894C9
:100320000B8FEA89FB8980818062CFCFCF93DF93E7
:10033000EC01888D8823B9F0AA89BB89E889F989FD
:100340008C9185FD03C0808186FD0DC00FB607FC32
:10035000F7CF8C9185FFF2CF808185FFEDCFCE0165
:100360000E942701E9CFDF91CF91089590E0FC0131
:10037000E859FF4F2491FC01EC55FF4F3491FC01EB
:10038000E057FF4FE491EE23C9F0222339F02330E8
:1003900001F1A8F4213019F1223029F1F0E0EE0F3B
:1003A000FF1FE458FF4FA591B4918FB7F894EC91DB
:1003B000611126C030953E233C938FBF08952730AE
:1003C000A9F02830C9F0243049F7809180008F7D52
:1003D00003C0809180008F7780938000DFCF84B549
:1003E0008F7784BDDBCF84B58F7DFBCF8091B0004C
:1003F0008F778093B000D2CF8091B0008F7DF9CFFE
:100400003E2BDACF3FB7F8948091970290919802F3
:10041000A0919902B0919A0226B5A89B05C02F3FE2
:1004200019F00196A11DB11D3FBFBA2FA92F982F1A
:100430008827BC01CD01620F711D811D911D42E015
:10044000660F771F881F991F4A95D1F708958F92DD
:100450009F92AF92BF92CF92DF92EF92FF924B01A9
:100460005C010E9402026B017C010E9402026C1975
:100470007D098E099F09683E734081059105A8F3A7
:1004800021E0821A9108A108B10888EEC80E83E025
:10049000D81EE11CF11C81149104A104B10429F7B8
:1004A000FF90EF90DF90CF90BF90AF909F908F9094
:1004B00008952FB7F89460919302709194028091FF
:1004C0009502909196022FBF089508958EBD000069
:1004D0000DB407FEFDCF8EB508951F93CF93DF9324
:1004E000182F80E591E00E948700CEE4D3E060E021
:1004F0008E810E94B60183E00E946602812F0E94D5
:10050000660280E00E946602182F61E08E810E94E0
:10051000B601812FDF91CF911F910895FF920F9324
:100520001F93CF93DF93F82E062F142F80E591E0D1
:100530000E948700CEE4D3E060E08E810E94B60185
:1005400085E00E9466028F2D0E946602802F0E9425
:100550006602812F0E94660261E08E81DF91CF9159
:100560001F910F91FF900C94B601CF92DF92EF9202
:10057000FF92CF93C82F0E9459026B017C014C2F30
:1005800060EE8FE00E948E028EE00E946D02807EFF
:10059000C81791F00E9459026C197D098E099F09B4
:1005A000693C71058105910550F381E0CF91FF9081
:1005B000EF90DF90CF90089580E0F8CFCF93DF9356
:1005C000C82F8EE00E946D02807E8032F9F4C03226
:1005D000E9F08BE20E946D02D82FD07486FD05C031
:1005E00040E460E48BE20E948E0240E460E48CE22E
:1005F0000E948E0280E60E94B502811111C0D111C5
:1006000005C040E060E48BE20E948E0240E060E4BE
:100610008CE20E948E028C2FDF91CF910C94B50258
:1006200081E0DF91CF910895CF92DF92EF92FF9218
:100630001F93CF93DF93182F6A0180E591E00E940A
:100640008700CEE4D3E060E08E810E94B60182E0B4
:100650000E946602812F0E946602C60123E09695E1
:1006600087952A95E1F70E9466028C2D8295880F66
:10067000807E0E94660280E00E94660280E00E9406
:10068000660261E08E81DF91CF911F91FF90EF9024
:10069000DF90CF900C94B6010F931F93CF93DF930D
:1006A000082F162F80E591E00E948700CEE4D3E06A
:1006B00060E08E810E94B60182E00E946602802F77
:1006C0000E946602812F0E94660261E08E81DF91A6
:1006D000CF911F910F910C94B6011F93CF93DF938D
:1006E00080E591E00E948700CEE4D3E060E08E8157
:1006F0000E94B60180EA0E94660280E00E946602C3
:10070000182F61E08E810E94B601812FDF91CF9179
:100710001F9108954F925F926F927F928F929F9256
:10072000AF92BF92CF92DF92EF92FF920F931F93FF
:10073000CF93DF9300D000D0CDB7DEB7B82E6B01DA
:100740003A01290160E0809154030E94B6018B2D8B
:100750000E946602CE0101965C014E0195E0890E71
:10076000911C80E00E946602F50181935F01E8150B
:10077000F905B9F72A818981F8E08F9FC00111241A
:10078000422F50E065E0559547956A95E1F7840F53
:10079000951F092E000CAA0BBB0BF60180839183D9
:1007A000A283B383F301108223FF3AC0F601808154
:1007B0009181A281B38132E0880F991FAA1FBB1FCC
:1007C0003A95D1F72370820F911DA11DB11D808331
:1007D0009183A283B38380819181A281B381BA2F57
:1007E000A92F982F88272B81820F911DA11DB11D44
:1007F00080839183A283B38380819181A281B3811D
:10080000BA2FA92F982F88272C81820F911DA11D07
:10081000B11D80839183A283B38381E0F301808340
:1008200080E00E946602982F9F70F801908386FBFB
:10083000882780F9F2018083D12CC12CF8018081B6
:10084000C81680F4F8E0CF16D10461F05701AC0C63
:10085000BD1C80E00E946602F5018083FFEFCF1A85
:10086000DF0AECCF61E0809154030F900F900F905E
:100870000F90DF91CF911F910F91FF90EF90DF903C
:10088000CF90BF90AF909F908F907F906F905F9030
:100890004F900C94B601FC0101900020E9F73197CC
:1008A000AF01481B590BBC0180EB92E00C94A900EE
:1008B0008F929F92AF92BF920F931F93CF93DF932C
:1008C000CDB7DEB7A1970FB6F894DEBF0FBECDBF90
:1008D00019A2423008F44AE08E010F5D1F4F842EAA
:1008E000912CB12CA12CA50194010E94C209E62FE4
:1008F000B901CA01EA30F4F4E05DD801EE938D014C
:10090000232B242B252B79F790E080E0109719F00A
:10091000CD010E944B04A1960FB6F894DEBF0FBE26
:10092000CDBFDF91CF911F910F91BF90AF909F905E
:100930008F900895E95CE1CF0C944B04CF92DF9245
:10094000EF92FF92CF93DF93C82F6A017B018BE177
:1009500091E00E949C0480E80E94DE02D82F83E38D
:1009600091E0D11123C0B701A60180E1C33089F025
:1009700050F484E0C13069F088E0C23051F0B70132
:10098000A60180E006C084E1C43019F088E1C530DA
:10099000B1F70E941403809158030E94DE02D82F01
:1009A0008DE491E0D11102C089E791E00E949C049E
:1009B0008D2FDF91CF91FF90EF90DF90CF90089532
:1009C000CF92DF92EF92FF92CF93DF93D82F6A01FD
:1009D0007B0180E991E00E949C0480E80E94DE0295
:1009E000C82F83E391E0C11112C0B701A60180E2D4
:1009F000D11184E20E941403809158030E94DE0208
:100A0000C82F86EA91E0C11102C08FEB91E00E94ED
:100A10009C048C2FDF91CF91FF90EF90DF90CF90CF
:100A20000895CF93DF930E944B04EC0189E092E09C
:100A30000E944B048C0F9D1FDF91CF9108951F9250
:100A40000F920FB60F9211242F933F934F935F9302
:100A50006F937F938F939F93AF93BF93EF93FF9386
:100A600080EB92E00E942701FF91EF91BF91AF913F
:100A70009F918F917F916F915F914F913F912F91B6
:100A80000F900FBE0F901F9018951F920F920FB6E8
:100A90000F9211242F938F939F93EF93FF93E091E5
:100AA000C002F091C1028081E091C602F091C702BC
:100AB00082FD1BC090818091C9028F5F8F7320914E
:100AC000CA02821741F0E091C902F0E0E055FD4F03
:100AD000958F8093C902FF91EF919F918F912F91F4
:100AE0000F900FBE0F901F9018958081F4CF1F922A
:100AF0000F920FB60F9211242F933F938F939F93D2
:100B0000AF93BF938091930290919402A09195022C
:100B1000B09196023091920223E0230F2D3758F5C1
:100B20000196A11DB11D2093920280939302909390
:100B30009402A0939502B0939602809197029091AF
:100B40009802A0919902B0919A020196A11DB11D3F
:100B50008093970290939802A0939902B0939A027F
:100B6000BF91AF919F918F913F912F910F900FBEA9
:100B70000F901F90189526E8230F0296A11DB11D16
:100B8000D2CFCF93DF93E0EBF2E01382128288EEB4
:100B900093E0A0E0B0E084839583A683B7838DE0E3
:100BA00091E09183808385EC90E09587848784EC45
:100BB00090E09787868780EC90E0918B808B81EC2A
:100BC00090E0938B828B82EC90E0958B848B86EC0B
:100BD00090E0978B868B118E128E138E148ECEE43E
:100BE000D3E019868DE493E098878F838AE08E8323
:100BF0000E948A0061E08E81DF91CF910C94B60152
:100C0000CF93DF93CDB7DEB765970FB6F894DEBF0D
:100C10000FBECDBF789484B5826084BD84B58160F9
:100C200084BD85B5826085BD85B5816085BD8091B7
:100C30006E00816080936E0010928100809181002F
:100C40008260809381008091810081608093810027
:100C5000809180008160809380008091B1008460E9
:100C60008093B1008091B00081608093B00080914A
:100C70007A00846080937A0080917A008260809309
:100C80007A0080917A00816080937A0080917A0066
:100C9000806880937A001092C100E091C002F091C8
:100CA000C10282E08083E091BC02F091BD0210821B
:100CB000E091BE02F091BF0280E180831092C802F1
:100CC000E091C402F091C50286E08083E091C20207
:100CD000F091C302808180618083E091C202F09133
:100CE000C302808188608083E091C202F091C302D8
:100CF000808180688083E091C202F091C30280818C
:100D00008F7D80831AE9A12E10E0B12E0EEAC02E4D
:100D100000E0D02EFFB6F89480919B02811122C092
:100D2000F5018491F6019491E82FF0E0EE0FFF1F9A
:100D3000EA57FF4FA591B4918C91982321F461E07B
:100D40008AE00E94B6018AE00E948A008CB5806128
:100D50008CBD8CB580648CBD8DE00E948A008BE0D8
:100D60000E948A0080919B028F5F80939B02FFBE4E
:100D700080E591E00E94870060E0809154030E942A
:100D8000B60180EC0E94660261E0809154030E94EB
:100D9000B6016AE070E080E090E00E94270280E8FF
:100DA0000E94DE02882399F084ED91E00E949C0469
:100DB0008BE692E00E9411058DE792E00E941105FA
:100DC00064E670E080E090E00E942702A3CF8EEE00
:100DD00091E00E949C0460E08AE20E944C0360EF74
:100DE00089E20E944C0366E888E20E944C038CE092
:100DF00092E00E949C0410E360E0812F0E944C036B
:100E000060E080E1810F0E944C0360E080E2810F8E
:100E10000E944C031F5F1E3379F760E080E60E945A
:100E20004C0360E080E70E944C0363E08BE20E9489
:100E30004C0344E064E680E60E948E0240E060E6F7
:100E400080E70E948E021092580380E00E94DE022A
:100E5000882319F081E292E0A9CF8CE392E00E940E
:100E60009C048AE592E00E9411054FEF58E060E093
:100E700070E080E00E94E0044FEF59E060E070E035
:100E800081E00E94E00441E052E060E070E080E038
:100E90000E949E0440E254E060E070E081E00E9425
:100EA0009E0446E050E060E070E082E00E949E0414
:100EB00047E050E060E070E083E00E949E0448E07C
:100EC00050E060E070E084E00E949E0449E050E061
:100ED00060E070E085E00E949E046E01F9E0CF0EB4
:100EE000D11CF3E28F2E912CA0E72A2EA2E03A2EFD
:100EF000412C512C5E0125E1A20EB11CE3E16E2EC6
:100F0000712C1D8A0E946D03837009F4B2C00E9487
:100F10006D03982F9B7A292F30E09595959595959F
:100F200090718370892BA901559547954470842B46
:100F300035952795359527952870822B80FF1AC106
:100F40007601850123E533E04EE453E06FE473E07E
:100F500080E90E948A0380914F0390915003A091F1
:100F60005103B0915203813042E09407A105B105CD
:100F700009F061C140E161E072E080E090E00E9430
:100F8000580489E092E00E944B04898590E0982FF4
:100F900088272A85820F911D9093AF028093AE021D
:100FA0006F85862F90E0982F88276889680F792FA2
:100FB000711D072E000C880B990B6093AA02709389
:100FC000AB028093AC029093AD024AE00E945804B9
:100FD00089E092E00E944B042091AE023091AF0272
:100FE000C901845A96408D3FE8E09E0708F0D0C0C2
:100FF000B3010E94AE097093A9026093A802009108
:10100000A6021091A7028091A8029091A902081748
:10101000190708F0CCC08091AA029091AB02A09170
:10102000AC02B091AD028D329140A105B10508F43A
:10103000CFC00F5F1F4F1093A7020093A6026091CD
:10104000A6027091A70290E080E04AE00E94580456
:1010500089E092E00E944B046091A8027091A9027D
:1010600090E080E04AE00E94580489E092E00E940B
:101070004B040E94590200919C0210919D02209104
:101080009E0230919F02601B710B820B930B6336A3
:1010900071058105910508F460C00E9459026093B2
:1010A0009C0270939D0280939E0290939F02809178
:1010B000A6029091A00299838A831B821C821D82C2
:1010C0001E821F82188620924F0330925003409256
:1010D00051035092520310924E031092530310E0AA
:1010E00000E00E946D038475843509F4C7C09091B7
:1010F000570363E070E0691B710990E0292F30E02D
:10110000261737070CF0BAC04FEF933020F4F901DF
:10111000EA5FFE4F4081482309F0AEC080E593307E
:1011200020F4F901ED5FFE4F8081FF24F394F80E67
:1011300060E0933020F420503F4FF901608140E09F
:101140008CE20E948E0280E00F5F1F4F823009F018
:1011500098C00233110509F08BC080E090E0892B24
:1011600009F4CFCE0E941301882309F4C7CE0E9450
:101170000000C0CE81FF0AC07601850123E533E07F
:101180004EE453E06FE473E084E9E3CE1D8AE3CEDE
:10119000203A3F4038F088E790E09093A90280938E
:1011A000A8022DCF1092A9021092A80228CF0817EA
:1011B000190771F48091AA029091AB02A091AC0240
:1011C000B091AD028D329140A105B10508F037CF45
:1011D0000115110509F433CF8091AA029091AB0259
:1011E000A091AC02B091AD028C329140A105B10545
:1011F00008F025CF0E9459022091A2023091A3024B
:101200004091A4025091A502621B730B840B950BB5
:101210006B3071058105910508F411CF0E945902C8
:101220006093A2027093A3028093A4029093A502FC
:101230000150110900CF80329440A105B10509F099
:1012400018CF40E160E274E080E090E00E94580432
:1012500089E092E00E944B04898590E083339105F8
:101260000CF407CF0A969093A1028093A00201CFBD
:10127000C4010197F1F735CF9F5F40CFF12C82E099
:1012800063CF0233110509F468CFF1E412E4FF16CD
:1012900041F021E514E4F21621F041E310E4F412E8
:1012A00010E08EE4898B1A8A1C8A1B8A80E591E003
:1012B0000E94870060E0809154030E94B601812F54
:1012C0000E9466028E010F5E1F4FF80181918F010F
:1012D0000E946602A016B106C1F788E00E9466026D
:1012E0008E010F5F1F4FF80181918F010E946602EE
:1012F000C016D106C1F761E0809154030E94B60187
:1013000080E591E00E94870060E0809154030E9494
:10131000B601F1E482E8FF1641F021E584E8F21617
:1013200021F041E381E8F41280E00E94660261E06E
:10133000809154030E94B60110E000E0FA940F5F20
:101340001F4F8F2D0E946D0283FF07CF02331105BF
:1013500009F403CFC4010197F1F7F1CFAA1BBB1B1E
:1013600051E107C0AA1FBB1FA617B70710F0A61BA5
:10137000B70B881F991F5A95A9F780959095BC01C6
:10138000CD010895A1E21A2EAA1BBB1BFD010DC0C1
:10139000AA1FBB1FEE1FFF1FA217B307E407F50725
:1013A00020F0A21BB30BE40BF50B661F771F881F01
:1013B000991F1A9469F760957095809590959B0197
:1013C000AC01BD01CF010895EE0FFF1F0590F49110
:0813D000E02D0994F894FFCF11
:1013D800040810304050041040000000004901A9E2
:1013E80000D60096010701E500F900426567696EBD
:1013F80020746F207365742046696C7465722121AE
:101408000D0A00456E7465722073657474696E67A1
:10141800206D6F64652066616C6C0D0A00456E7402
:101428006572206E6F726D616C206D6F64652066E9
:10143800616C6C0D0A5365742066696C7465722062
:101448006661696C21210D0A007365742046696C18
:10145800746572207375636365737321210D0A00C7
:10146800426567696E20746F20736574204D6173DF
:101478006B21210D0A00456E746572206E6F726DC6
:10148800616C206D6F64652066616C6C0D0A007379
:101498006574204D61736B20737563636573732185
:1014A800210D0A00456E7465722073657474696E47
:1014B80067206D6F6465206661696C0D0A00456E72
:1014C8007465722073657474696E67206D6F6465E6
:1014D8002073756363657373200D0A007365742048
:1014E80072617465207375636365737321210D0AD6
:1014F80000456E746572204E6F726D616C204D6F81
:101508006465204661696C21210D0A00456E746589
:1015180072204E6F726D616C204D6F64652053753B
:10152800636365737321210D0A0043414E204255C0
:101538005320696E6974206F6B210043414E20422D
:10154800555320696E6974206661696C0020496E84
:1015580069742043414E2042555320616761696E8A
:02156800000081
:00000001FF
